{
  "contractName": "GalloToken",
  "abi": [
    {
      "inputs": [
        {
          "internalType": "uint256",
          "name": "_initialSupply",
          "type": "uint256"
        }
      ],
      "stateMutability": "nonpayable",
      "type": "constructor"
    },
    {
      "anonymous": false,
      "inputs": [
        {
          "indexed": true,
          "internalType": "address",
          "name": "_from",
          "type": "address"
        },
        {
          "indexed": true,
          "internalType": "address",
          "name": "_to",
          "type": "address"
        },
        {
          "indexed": false,
          "internalType": "uint256",
          "name": "_value",
          "type": "uint256"
        }
      ],
      "name": "Transfer",
      "type": "event"
    },
    {
      "inputs": [
        {
          "internalType": "address",
          "name": "",
          "type": "address"
        }
      ],
      "name": "balanceOf",
      "outputs": [
        {
          "internalType": "uint256",
          "name": "",
          "type": "uint256"
        }
      ],
      "stateMutability": "view",
      "type": "function",
      "constant": true
    },
    {
      "inputs": [],
      "name": "name",
      "outputs": [
        {
          "internalType": "string",
          "name": "",
          "type": "string"
        }
      ],
      "stateMutability": "view",
      "type": "function",
      "constant": true
    },
    {
      "inputs": [],
      "name": "standard",
      "outputs": [
        {
          "internalType": "string",
          "name": "",
          "type": "string"
        }
      ],
      "stateMutability": "view",
      "type": "function",
      "constant": true
    },
    {
      "inputs": [],
      "name": "symbol",
      "outputs": [
        {
          "internalType": "string",
          "name": "",
          "type": "string"
        }
      ],
      "stateMutability": "view",
      "type": "function",
      "constant": true
    },
    {
      "inputs": [],
      "name": "totalSupply",
      "outputs": [
        {
          "internalType": "uint256",
          "name": "",
          "type": "uint256"
        }
      ],
      "stateMutability": "view",
      "type": "function",
      "constant": true
    },
    {
      "inputs": [
        {
          "internalType": "address",
          "name": "_to",
          "type": "address"
        },
        {
          "internalType": "uint256",
          "name": "_value",
          "type": "uint256"
        }
      ],
      "name": "transfer",
      "outputs": [
        {
          "internalType": "bool",
          "name": "success",
          "type": "bool"
        }
      ],
      "stateMutability": "nonpayable",
      "type": "function"
    },
    {
      "inputs": [
        {
          "internalType": "address",
          "name": "_spender",
          "type": "address"
        },
        {
          "internalType": "uint256",
          "name": "_value",
          "type": "uint256"
        }
      ],
      "name": "approve",
      "outputs": [
        {
          "internalType": "bool",
          "name": "success",
          "type": "bool"
        }
      ],
      "stateMutability": "nonpayable",
      "type": "function"
    }
  ],
  "bytecode": "0x60806040526040518060400160405280600b81526020017f47616c6c6f20546f6b656e000000000000000000000000000000000000000000815250600090805190602001906200005192919062000173565b506040518060400160405280600381526020017f43414d0000000000000000000000000000000000000000000000000000000000815250600190805190602001906200009f92919062000173565b506040518060400160405280601081526020017f47616c6c6f20546f6b656e2076312e300000000000000000000000000000000081525060029080519060200190620000ed92919062000173565b50348015620000fb57600080fd5b5060405162000b3e38038062000b3e833981810160405281019062000121919062000263565b80600460003373ffffffffffffffffffffffffffffffffffffffff1673ffffffffffffffffffffffffffffffffffffffff168152602001908152602001600020819055508060038190555050620002fa565b8280546200018190620002c4565b90600052602060002090601f016020900481019282620001a55760008555620001f1565b82601f10620001c057805160ff1916838001178555620001f1565b82800160010185558215620001f1579182015b82811115620001f0578251825591602001919060010190620001d3565b5b50905062000200919062000204565b5090565b5b808211156200021f57600081600090555060010162000205565b5090565b600080fd5b6000819050919050565b6200023d8162000228565b81146200024957600080fd5b50565b6000815190506200025d8162000232565b92915050565b6000602082840312156200027c576200027b62000223565b5b60006200028c848285016200024c565b91505092915050565b7f4e487b7100000000000000000000000000000000000000000000000000000000600052602260045260246000fd5b60006002820490506001821680620002dd57607f821691505b60208210811415620002f457620002f362000295565b5b50919050565b610834806200030a6000396000f3fe608060405234801561001057600080fd5b506004361061007d5760003560e01c80635a3b7e421161005b5780635a3b7e42146100ee57806370a082311461010c57806395d89b411461013c578063a9059cbb1461015a5761007d565b806306fdde0314610082578063095ea7b3146100a057806318160ddd146100d0575b600080fd5b61008a61018a565b604051610097919061055c565b60405180910390f35b6100ba60048036038101906100b59190610617565b610218565b6040516100c79190610672565b60405180910390f35b6100d8610220565b6040516100e5919061069c565b60405180910390f35b6100f6610226565b604051610103919061055c565b60405180910390f35b610126600480360381019061012191906106b7565b6102b4565b604051610133919061069c565b60405180910390f35b6101446102cc565b604051610151919061055c565b60405180910390f35b610174600480360381019061016f9190610617565b61035a565b6040516101819190610672565b60405180910390f35b6000805461019790610713565b80601f01602080910402602001604051908101604052809291908181526020018280546101c390610713565b80156102105780601f106101e557610100808354040283529160200191610210565b820191906000526020600020905b8154815290600101906020018083116101f357829003601f168201915b505050505081565b600092915050565b60035481565b6002805461023390610713565b80601f016020809104026020016040519081016040528092919081815260200182805461025f90610713565b80156102ac5780601f10610281576101008083540402835291602001916102ac565b820191906000526020600020905b81548152906001019060200180831161028f57829003601f168201915b505050505081565b60046020528060005260406000206000915090505481565b600180546102d990610713565b80601f016020809104026020016040519081016040528092919081815260200182805461030590610713565b80156103525780601f1061032757610100808354040283529160200191610352565b820191906000526020600020905b81548152906001019060200180831161033557829003601f168201915b505050505081565b600081600460003373ffffffffffffffffffffffffffffffffffffffff1673ffffffffffffffffffffffffffffffffffffffff1681526020019081526020016000205410156103a857600080fd5b81600460003373ffffffffffffffffffffffffffffffffffffffff1673ffffffffffffffffffffffffffffffffffffffff16815260200190815260200160002060008282546103f79190610774565b9250508190555081600460008573ffffffffffffffffffffffffffffffffffffffff1673ffffffffffffffffffffffffffffffffffffffff168152602001908152602001600020600082825461044d91906107a8565b925050819055508273ffffffffffffffffffffffffffffffffffffffff163373ffffffffffffffffffffffffffffffffffffffff167fddf252ad1be2c89b69c2b068fc378daa952ba7f163c4a11628f55a4df523b3ef846040516104b1919061069c565b60405180910390a36001905092915050565b600081519050919050565b600082825260208201905092915050565b60005b838110156104fd5780820151818401526020810190506104e2565b8381111561050c576000848401525b50505050565b6000601f19601f8301169050919050565b600061052e826104c3565b61053881856104ce565b93506105488185602086016104df565b61055181610512565b840191505092915050565b600060208201905081810360008301526105768184610523565b905092915050565b600080fd5b600073ffffffffffffffffffffffffffffffffffffffff82169050919050565b60006105ae82610583565b9050919050565b6105be816105a3565b81146105c957600080fd5b50565b6000813590506105db816105b5565b92915050565b6000819050919050565b6105f4816105e1565b81146105ff57600080fd5b50565b600081359050610611816105eb565b92915050565b6000806040838503121561062e5761062d61057e565b5b600061063c858286016105cc565b925050602061064d85828601610602565b9150509250929050565b60008115159050919050565b61066c81610657565b82525050565b60006020820190506106876000830184610663565b92915050565b610696816105e1565b82525050565b60006020820190506106b1600083018461068d565b92915050565b6000602082840312156106cd576106cc61057e565b5b60006106db848285016105cc565b91505092915050565b7f4e487b7100000000000000000000000000000000000000000000000000000000600052602260045260246000fd5b6000600282049050600182168061072b57607f821691505b6020821081141561073f5761073e6106e4565b5b50919050565b7f4e487b7100000000000000000000000000000000000000000000000000000000600052601160045260246000fd5b600061077f826105e1565b915061078a836105e1565b92508282101561079d5761079c610745565b5b828203905092915050565b60006107b3826105e1565b91506107be836105e1565b9250827fffffffffffffffffffffffffffffffffffffffffffffffffffffffffffffffff038211156107f3576107f2610745565b5b82820190509291505056fea2646970667358221220e523577601adf9520aa57f23c7e57298d1518af0f9707ec128a8ee00baadd94a64736f6c63430008090033",
  "immutableReferences": {},
  "source": "pragma solidity >=0.4.22 <0.9.0;\r\n\r\ncontract GalloToken {\r\n\r\n    string public name = \"Gallo Token\";\r\n    string public symbol = \"CAM\";\r\n    string public standard = \"Gallo Token v1.0\";\r\n    uint256 public totalSupply;\r\n\r\n    event Transfer(\r\n        address indexed _from,\r\n        address indexed _to,\r\n        uint256 _value\r\n    );\r\n\r\n    mapping(address => uint256) public balanceOf;\r\n\r\n    constructor(uint256 _initialSupply) public {\r\n        balanceOf[msg.sender] = _initialSupply;\r\n        totalSupply = _initialSupply;\r\n    }\r\n\r\n    function transfer(address _to, uint256 _value) public returns(bool success){\r\n        require(balanceOf[msg.sender] >= _value);\r\n        \r\n        balanceOf[msg.sender] -= _value;\r\n        balanceOf[_to] += _value;\r\n\r\n        emit Transfer(msg.sender, _to, _value);\r\n\r\n        return true;\r\n    }\r\n\r\n    function approve(address _spender, uint256 _value) public returns (bool success){\r\n        \r\n    }\r\n}",
  "sourcePath": "C:\\Users\\guiga\\Documents\\Projetos\\Cripto1.0\\contracts\\GalloToken.sol",
  "compiler": {
    "name": "solc",
    "version": "0.8.9+commit.e5eed63a.Emscripten.clang"
  },
  "schemaVersion": "3.4.3",
  "updatedAt": "2021-11-08T17:59:02.784Z",
  "networkType": "ethereum",
  "devdoc": {
    "kind": "dev",
    "methods": {},
    "version": 1
  },
  "userdoc": {
    "kind": "user",
    "methods": {},
    "version": 1
  }
}